{
  "_format": "hh-sol-artifact-1",
  "contractName": "NFTmarketPlace",
  "sourceName": "contracts/MarketPlace.sol",
  "abi": [
    {
      "inputs": [],
      "stateMutability": "nonpayable",
      "type": "constructor"
    },
    {
      "inputs": [
        {
          "internalType": "address",
          "name": "sender",
          "type": "address"
        },
        {
          "internalType": "uint256",
          "name": "tokenId",
          "type": "uint256"
        },
        {
          "internalType": "address",
          "name": "owner",
          "type": "address"
        }
      ],
      "name": "ERC721IncorrectOwner",
      "type": "error"
    },
    {
      "inputs": [
        {
          "internalType": "address",
          "name": "operator",
          "type": "address"
        },
        {
          "internalType": "uint256",
          "name": "tokenId",
          "type": "uint256"
        }
      ],
      "name": "ERC721InsufficientApproval",
      "type": "error"
    },
    {
      "inputs": [
        {
          "internalType": "address",
          "name": "approver",
          "type": "address"
        }
      ],
      "name": "ERC721InvalidApprover",
      "type": "error"
    },
    {
      "inputs": [
        {
          "internalType": "address",
          "name": "operator",
          "type": "address"
        }
      ],
      "name": "ERC721InvalidOperator",
      "type": "error"
    },
    {
      "inputs": [
        {
          "internalType": "address",
          "name": "owner",
          "type": "address"
        }
      ],
      "name": "ERC721InvalidOwner",
      "type": "error"
    },
    {
      "inputs": [
        {
          "internalType": "address",
          "name": "receiver",
          "type": "address"
        }
      ],
      "name": "ERC721InvalidReceiver",
      "type": "error"
    },
    {
      "inputs": [
        {
          "internalType": "address",
          "name": "sender",
          "type": "address"
        }
      ],
      "name": "ERC721InvalidSender",
      "type": "error"
    },
    {
      "inputs": [
        {
          "internalType": "uint256",
          "name": "tokenId",
          "type": "uint256"
        }
      ],
      "name": "ERC721NonexistentToken",
      "type": "error"
    },
    {
      "anonymous": false,
      "inputs": [
        {
          "indexed": true,
          "internalType": "address",
          "name": "owner",
          "type": "address"
        },
        {
          "indexed": true,
          "internalType": "address",
          "name": "approved",
          "type": "address"
        },
        {
          "indexed": true,
          "internalType": "uint256",
          "name": "tokenId",
          "type": "uint256"
        }
      ],
      "name": "Approval",
      "type": "event"
    },
    {
      "anonymous": false,
      "inputs": [
        {
          "indexed": true,
          "internalType": "address",
          "name": "owner",
          "type": "address"
        },
        {
          "indexed": true,
          "internalType": "address",
          "name": "operator",
          "type": "address"
        },
        {
          "indexed": false,
          "internalType": "bool",
          "name": "approved",
          "type": "bool"
        }
      ],
      "name": "ApprovalForAll",
      "type": "event"
    },
    {
      "anonymous": false,
      "inputs": [
        {
          "indexed": false,
          "internalType": "uint256",
          "name": "_fromTokenId",
          "type": "uint256"
        },
        {
          "indexed": false,
          "internalType": "uint256",
          "name": "_toTokenId",
          "type": "uint256"
        }
      ],
      "name": "BatchMetadataUpdate",
      "type": "event"
    },
    {
      "anonymous": false,
      "inputs": [
        {
          "indexed": false,
          "internalType": "uint256",
          "name": "tokenid",
          "type": "uint256"
        },
        {
          "indexed": false,
          "internalType": "address",
          "name": "_owner",
          "type": "address"
        }
      ],
      "name": "ItemSold",
      "type": "event"
    },
    {
      "anonymous": false,
      "inputs": [
        {
          "indexed": true,
          "internalType": "uint256",
          "name": "tokenid",
          "type": "uint256"
        },
        {
          "indexed": false,
          "internalType": "address",
          "name": "owner",
          "type": "address"
        },
        {
          "indexed": false,
          "internalType": "address",
          "name": "seller",
          "type": "address"
        },
        {
          "indexed": false,
          "internalType": "uint256",
          "name": "Price",
          "type": "uint256"
        },
        {
          "indexed": false,
          "internalType": "bool",
          "name": "sold",
          "type": "bool"
        }
      ],
      "name": "MarketItemCreated",
      "type": "event"
    },
    {
      "anonymous": false,
      "inputs": [
        {
          "indexed": false,
          "internalType": "uint256",
          "name": "_tokenId",
          "type": "uint256"
        }
      ],
      "name": "MetadataUpdate",
      "type": "event"
    },
    {
      "anonymous": false,
      "inputs": [
        {
          "indexed": true,
          "internalType": "address",
          "name": "from",
          "type": "address"
        },
        {
          "indexed": true,
          "internalType": "address",
          "name": "to",
          "type": "address"
        },
        {
          "indexed": true,
          "internalType": "uint256",
          "name": "tokenId",
          "type": "uint256"
        }
      ],
      "name": "Transfer",
      "type": "event"
    },
    {
      "inputs": [
        {
          "internalType": "uint256",
          "name": "tokenid",
          "type": "uint256"
        }
      ],
      "name": "CreateMarketSale",
      "outputs": [],
      "stateMutability": "payable",
      "type": "function"
    },
    {
      "inputs": [],
      "name": "FetchMarketItems",
      "outputs": [
        {
          "components": [
            {
              "internalType": "uint256",
              "name": "tokenid",
              "type": "uint256"
            },
            {
              "internalType": "address",
              "name": "owner",
              "type": "address"
            },
            {
              "internalType": "address",
              "name": "seller",
              "type": "address"
            },
            {
              "internalType": "uint256",
              "name": "Price",
              "type": "uint256"
            },
            {
              "internalType": "bool",
              "name": "sold",
              "type": "bool"
            }
          ],
          "internalType": "struct NFTmarketPlace.MarketItem[]",
          "name": "",
          "type": "tuple[]"
        }
      ],
      "stateMutability": "view",
      "type": "function"
    },
    {
      "inputs": [
        {
          "internalType": "address",
          "name": "to",
          "type": "address"
        },
        {
          "internalType": "uint256",
          "name": "tokenId",
          "type": "uint256"
        }
      ],
      "name": "approve",
      "outputs": [],
      "stateMutability": "nonpayable",
      "type": "function"
    },
    {
      "inputs": [
        {
          "internalType": "address",
          "name": "owner",
          "type": "address"
        }
      ],
      "name": "balanceOf",
      "outputs": [
        {
          "internalType": "uint256",
          "name": "",
          "type": "uint256"
        }
      ],
      "stateMutability": "view",
      "type": "function"
    },
    {
      "inputs": [
        {
          "internalType": "string",
          "name": "tokenURI",
          "type": "string"
        },
        {
          "internalType": "uint256",
          "name": "price",
          "type": "uint256"
        }
      ],
      "name": "createToken",
      "outputs": [
        {
          "internalType": "uint256",
          "name": "",
          "type": "uint256"
        }
      ],
      "stateMutability": "payable",
      "type": "function"
    },
    {
      "inputs": [],
      "name": "fetchMyNFTs",
      "outputs": [
        {
          "components": [
            {
              "internalType": "uint256",
              "name": "tokenid",
              "type": "uint256"
            },
            {
              "internalType": "address",
              "name": "owner",
              "type": "address"
            },
            {
              "internalType": "address",
              "name": "seller",
              "type": "address"
            },
            {
              "internalType": "uint256",
              "name": "Price",
              "type": "uint256"
            },
            {
              "internalType": "bool",
              "name": "sold",
              "type": "bool"
            }
          ],
          "internalType": "struct NFTmarketPlace.MarketItem[]",
          "name": "",
          "type": "tuple[]"
        }
      ],
      "stateMutability": "view",
      "type": "function"
    },
    {
      "inputs": [
        {
          "internalType": "uint256",
          "name": "tokenId",
          "type": "uint256"
        }
      ],
      "name": "getApproved",
      "outputs": [
        {
          "internalType": "address",
          "name": "",
          "type": "address"
        }
      ],
      "stateMutability": "view",
      "type": "function"
    },
    {
      "inputs": [],
      "name": "getListingprice",
      "outputs": [
        {
          "internalType": "uint256",
          "name": "",
          "type": "uint256"
        }
      ],
      "stateMutability": "view",
      "type": "function"
    },
    {
      "inputs": [
        {
          "internalType": "address",
          "name": "owner",
          "type": "address"
        },
        {
          "internalType": "address",
          "name": "operator",
          "type": "address"
        }
      ],
      "name": "isApprovedForAll",
      "outputs": [
        {
          "internalType": "bool",
          "name": "",
          "type": "bool"
        }
      ],
      "stateMutability": "view",
      "type": "function"
    },
    {
      "inputs": [],
      "name": "name",
      "outputs": [
        {
          "internalType": "string",
          "name": "",
          "type": "string"
        }
      ],
      "stateMutability": "view",
      "type": "function"
    },
    {
      "inputs": [
        {
          "internalType": "uint256",
          "name": "tokenId",
          "type": "uint256"
        }
      ],
      "name": "ownerOf",
      "outputs": [
        {
          "internalType": "address",
          "name": "",
          "type": "address"
        }
      ],
      "stateMutability": "view",
      "type": "function"
    },
    {
      "inputs": [
        {
          "internalType": "uint256",
          "name": "tokenId",
          "type": "uint256"
        },
        {
          "internalType": "uint256",
          "name": "price",
          "type": "uint256"
        }
      ],
      "name": "resellToken",
      "outputs": [],
      "stateMutability": "payable",
      "type": "function"
    },
    {
      "inputs": [
        {
          "internalType": "address",
          "name": "from",
          "type": "address"
        },
        {
          "internalType": "address",
          "name": "to",
          "type": "address"
        },
        {
          "internalType": "uint256",
          "name": "tokenId",
          "type": "uint256"
        }
      ],
      "name": "safeTransferFrom",
      "outputs": [],
      "stateMutability": "nonpayable",
      "type": "function"
    },
    {
      "inputs": [
        {
          "internalType": "address",
          "name": "from",
          "type": "address"
        },
        {
          "internalType": "address",
          "name": "to",
          "type": "address"
        },
        {
          "internalType": "uint256",
          "name": "tokenId",
          "type": "uint256"
        },
        {
          "internalType": "bytes",
          "name": "data",
          "type": "bytes"
        }
      ],
      "name": "safeTransferFrom",
      "outputs": [],
      "stateMutability": "nonpayable",
      "type": "function"
    },
    {
      "inputs": [
        {
          "internalType": "address",
          "name": "operator",
          "type": "address"
        },
        {
          "internalType": "bool",
          "name": "approved",
          "type": "bool"
        }
      ],
      "name": "setApprovalForAll",
      "outputs": [],
      "stateMutability": "nonpayable",
      "type": "function"
    },
    {
      "inputs": [
        {
          "internalType": "bytes4",
          "name": "interfaceId",
          "type": "bytes4"
        }
      ],
      "name": "supportsInterface",
      "outputs": [
        {
          "internalType": "bool",
          "name": "",
          "type": "bool"
        }
      ],
      "stateMutability": "view",
      "type": "function"
    },
    {
      "inputs": [],
      "name": "symbol",
      "outputs": [
        {
          "internalType": "string",
          "name": "",
          "type": "string"
        }
      ],
      "stateMutability": "view",
      "type": "function"
    },
    {
      "inputs": [
        {
          "internalType": "uint256",
          "name": "tokenId",
          "type": "uint256"
        }
      ],
      "name": "tokenURI",
      "outputs": [
        {
          "internalType": "string",
          "name": "",
          "type": "string"
        }
      ],
      "stateMutability": "view",
      "type": "function"
    },
    {
      "inputs": [
        {
          "internalType": "address",
          "name": "from",
          "type": "address"
        },
        {
          "internalType": "address",
          "name": "to",
          "type": "address"
        },
        {
          "internalType": "uint256",
          "name": "tokenId",
          "type": "uint256"
        }
      ],
      "name": "transferFrom",
      "outputs": [],
      "stateMutability": "nonpayable",
      "type": "function"
    },
    {
      "inputs": [
        {
          "internalType": "uint256",
          "name": "_listingPrice",
          "type": "uint256"
        }
      ],
      "name": "updateListingPrice",
      "outputs": [],
      "stateMutability": "payable",
      "type": "function"
    }
  ],
  "bytecode": "0x6080604052655af3107a4000600b553480156200001b57600080fd5b506040518060400160405280600781526020017f4a554a55545355000000000000000000000000000000000000000000000000008152506040518060400160405280600381526020017f4a4a4b000000000000000000000000000000000000000000000000000000000081525081600090816200009991906200036f565b508060019081620000ab91906200036f565b50505033600760006101000a81548173ffffffffffffffffffffffffffffffffffffffff021916908373ffffffffffffffffffffffffffffffffffffffff16021790555062000456565b600081519050919050565b7f4e487b7100000000000000000000000000000000000000000000000000000000600052604160045260246000fd5b7f4e487b7100000000000000000000000000000000000000000000000000000000600052602260045260246000fd5b600060028204905060018216806200017757607f821691505b6020821081036200018d576200018c6200012f565b5b50919050565b60008190508160005260206000209050919050565b60006020601f8301049050919050565b600082821b905092915050565b600060088302620001f77fffffffffffffffffffffffffffffffffffffffffffffffffffffffffffffffff82620001b8565b620002038683620001b8565b95508019841693508086168417925050509392505050565b6000819050919050565b6000819050919050565b6000620002506200024a62000244846200021b565b62000225565b6200021b565b9050919050565b6000819050919050565b6200026c836200022f565b620002846200027b8262000257565b848454620001c5565b825550505050565b600090565b6200029b6200028c565b620002a881848462000261565b505050565b5b81811015620002d057620002c460008262000291565b600181019050620002ae565b5050565b601f8211156200031f57620002e98162000193565b620002f484620001a8565b8101602085101562000304578190505b6200031c6200031385620001a8565b830182620002ad565b50505b505050565b600082821c905092915050565b6000620003446000198460080262000324565b1980831691505092915050565b60006200035f838362000331565b9150826002028217905092915050565b6200037a82620000f5565b67ffffffffffffffff81111562000396576200039562000100565b5b620003a282546200015e565b620003af828285620002d4565b600060209050601f831160018114620003e75760008415620003d2578287015190505b620003de858262000351565b8655506200044e565b601f198416620003f78662000193565b60005b828110156200042157848901518255600182019150602085019450602081019050620003fa565b868310156200044157848901516200043d601f89168262000331565b8355505b6001600288020188555050505b505050505050565b6139c880620004666000396000f3fe60806040526004361061011f5760003560e01c806372b3b620116100a0578063c87b56dd11610064578063c87b56dd146103dd578063dac2fcba1461041a578063e219fc7514610436578063e985e9c514610452578063ed6026931461048f5761011f565b806372b3b6201461031457806395d89b4114610344578063a22cb4651461036f578063ae677aa314610398578063b88d4fde146103b45761011f565b806323b872dd116100e757806323b872dd1461021d57806342842e0e146102465780634cbe6a191461026f5780636352211e1461029a57806370a08231146102d75761011f565b806301ffc9a71461012457806306fdde0314610161578063081812fc1461018c578063095ea7b3146101c9578063202e3740146101f2575b600080fd5b34801561013057600080fd5b5061014b6004803603810190610146919061282f565b6104ba565b6040516101589190612877565b60405180910390f35b34801561016d57600080fd5b5061017661051b565b6040516101839190612922565b60405180910390f35b34801561019857600080fd5b506101b360048036038101906101ae919061297a565b6105ad565b6040516101c091906129e8565b60405180910390f35b3480156101d557600080fd5b506101f060048036038101906101eb9190612a2f565b6105c9565b005b3480156101fe57600080fd5b506102076105df565b6040516102149190612bb3565b60405180910390f35b34801561022957600080fd5b50610244600480360381019061023f9190612bd5565b6108c4565b005b34801561025257600080fd5b5061026d60048036038101906102689190612bd5565b6109c6565b005b34801561027b57600080fd5b506102846109e6565b6040516102919190612bb3565b60405180910390f35b3480156102a657600080fd5b506102c160048036038101906102bc919061297a565b610c2f565b6040516102ce91906129e8565b60405180910390f35b3480156102e357600080fd5b506102fe60048036038101906102f99190612c28565b610c41565b60405161030b9190612c64565b60405180910390f35b61032e60048036038101906103299190612db4565b610cfb565b60405161033b9190612c64565b60405180910390f35b34801561035057600080fd5b50610359610d44565b6040516103669190612922565b60405180910390f35b34801561037b57600080fd5b5061039660048036038101906103919190612e3c565b610dd6565b005b6103b260048036038101906103ad919061297a565b610dec565b005b3480156103c057600080fd5b506103db60048036038101906103d69190612f1d565b610e86565b005b3480156103e957600080fd5b5061040460048036038101906103ff919061297a565b610ea3565b6040516104119190612922565b60405180910390f35b610434600480360381019061042f919061297a565b610fb6565b005b610450600480360381019061044b9190612fa0565b61126d565b005b34801561045e57600080fd5b5061047960048036038101906104749190612fe0565b611470565b6040516104869190612877565b60405180910390f35b34801561049b57600080fd5b506104a4611504565b6040516104b19190612c64565b60405180910390f35b6000634906490660e01b7bffffffffffffffffffffffffffffffffffffffffffffffffffffffff1916827bffffffffffffffffffffffffffffffffffffffffffffffffffffffff1916148061051457506105138261150e565b5b9050919050565b60606000805461052a9061304f565b80601f01602080910402602001604051908101604052809291908181526020018280546105569061304f565b80156105a35780601f10610578576101008083540402835291602001916105a3565b820191906000526020600020905b81548152906001019060200180831161058657829003601f168201915b5050505050905090565b60006105b8826115f0565b506105c282611678565b9050919050565b6105db82826105d66116b5565b6116bd565b5050565b60606000600854905060008060005b8381101561068e573373ffffffffffffffffffffffffffffffffffffffff16600c600060018461061e91906130af565b815260200190815260200160002060010160009054906101000a900473ffffffffffffffffffffffffffffffffffffffff1673ffffffffffffffffffffffffffffffffffffffff160361067b5760018361067891906130af565b92505b8080610686906130e3565b9150506105ee565b5060008267ffffffffffffffff8111156106ab576106aa612c89565b5b6040519080825280602002602001820160405280156106e457816020015b6106d1612766565b8152602001906001900390816106c95790505b50905060005b848110156108b9573373ffffffffffffffffffffffffffffffffffffffff16600c600060018461071a91906130af565b815260200190815260200160002060010160009054906101000a900473ffffffffffffffffffffffffffffffffffffffff1673ffffffffffffffffffffffffffffffffffffffff16036108a657600060018261077691906130af565b90506000600c60008381526020019081526020016000209050806040518060a0016040529081600082015481526020016001820160009054906101000a900473ffffffffffffffffffffffffffffffffffffffff1673ffffffffffffffffffffffffffffffffffffffff1673ffffffffffffffffffffffffffffffffffffffff1681526020016002820160009054906101000a900473ffffffffffffffffffffffffffffffffffffffff1673ffffffffffffffffffffffffffffffffffffffff1673ffffffffffffffffffffffffffffffffffffffff168152602001600382015481526020016004820160009054906101000a900460ff1615151515815250508486815181106108895761088861312b565b5b60200260200101819052506001856108a191906130af565b945050505b80806108b1906130e3565b9150506106ea565b508094505050505090565b600073ffffffffffffffffffffffffffffffffffffffff168273ffffffffffffffffffffffffffffffffffffffff16036109365760006040517f64a0ae9200000000000000000000000000000000000000000000000000000000815260040161092d91906129e8565b60405180910390fd5b600061094a83836109456116b5565b6116cf565b90508373ffffffffffffffffffffffffffffffffffffffff168173ffffffffffffffffffffffffffffffffffffffff16146109c0578382826040517f64283d7b0000000000000000000000000000000000000000000000000000000081526004016109b79392919061315a565b60405180910390fd5b50505050565b6109e183838360405180602001604052806000815250610e86565b505050565b606060006009546008546109fa9190613191565b90506000808267ffffffffffffffff811115610a1957610a18612c89565b5b604051908082528060200260200182016040528015610a5257816020015b610a3f612766565b815260200190600190039081610a375790505b50905060005b838111610c25573073ffffffffffffffffffffffffffffffffffffffff16600c6000600184610a8791906130af565b815260200190815260200160002060010160009054906101000a900473ffffffffffffffffffffffffffffffffffffffff1673ffffffffffffffffffffffffffffffffffffffff1603610c12576000600182610ae391906130af565b90506000600c60008381526020019081526020016000209050806040518060a0016040529081600082015481526020016001820160009054906101000a900473ffffffffffffffffffffffffffffffffffffffff1673ffffffffffffffffffffffffffffffffffffffff1673ffffffffffffffffffffffffffffffffffffffff1681526020016002820160009054906101000a900473ffffffffffffffffffffffffffffffffffffffff1673ffffffffffffffffffffffffffffffffffffffff1673ffffffffffffffffffffffffffffffffffffffff168152602001600382015481526020016004820160009054906101000a900460ff161515151581525050848681518110610bf657610bf561312b565b5b60200260200101819052508480610c0c906130e3565b95505050505b8080610c1d906130e3565b915050610a58565b5080935050505090565b6000610c3a826115f0565b9050919050565b60008073ffffffffffffffffffffffffffffffffffffffff168273ffffffffffffffffffffffffffffffffffffffff1603610cb45760006040517f89c62b64000000000000000000000000000000000000000000000000000000008152600401610cab91906129e8565b60405180910390fd5b600360008373ffffffffffffffffffffffffffffffffffffffff1673ffffffffffffffffffffffffffffffffffffffff168152602001908152602001600020549050919050565b600060086000815480929190610d10906130e3565b919050555060006008549050610d2633826118e9565b610d3081856119e2565b610d3a8184611a3e565b8091505092915050565b606060018054610d539061304f565b80601f0160208091040260200160405190810160405280929190818152602001828054610d7f9061304f565b8015610dcc5780601f10610da157610100808354040283529160200191610dcc565b820191906000526020600020905b815481529060010190602001808311610daf57829003601f168201915b5050505050905090565b610de8610de16116b5565b8383611c41565b5050565b3373ffffffffffffffffffffffffffffffffffffffff16600760009054906101000a900473ffffffffffffffffffffffffffffffffffffffff1673ffffffffffffffffffffffffffffffffffffffff1614610e7c576040517f08c379a0000000000000000000000000000000000000000000000000000000008152600401610e7390613237565b60405180910390fd5b80600b8190555050565b610e918484846108c4565b610e9d84848484611db0565b50505050565b6060610eae826115f0565b506000600660008481526020019081526020016000208054610ecf9061304f565b80601f0160208091040260200160405190810160405280929190818152602001828054610efb9061304f565b8015610f485780601f10610f1d57610100808354040283529160200191610f48565b820191906000526020600020905b815481529060010190602001808311610f2b57829003601f168201915b505050505090506000610f59611f67565b90506000815103610f6e578192505050610fb1565b600082511115610fa3578082604051602001610f8b929190613293565b60405160208183030381529060405292505050610fb1565b610fac84611f7e565b925050505b919050565b6000600c60008381526020019081526020016000206003015490506000600c600084815260200190815260200160002060020160009054906101000a900473ffffffffffffffffffffffffffffffffffffffff16905081341461104e576040517f08c379a000000000000000000000000000000000000000000000000000000000815260040161104590613329565b60405180910390fd5b60096000815480929190611061906130e3565b91905055506040518060a001604052808481526020013373ffffffffffffffffffffffffffffffffffffffff168152602001600073ffffffffffffffffffffffffffffffffffffffff168152602001600c600086815260200190815260200160002060030154815260200160011515815250600c60008581526020019081526020016000206000820151816000015560208201518160010160006101000a81548173ffffffffffffffffffffffffffffffffffffffff021916908373ffffffffffffffffffffffffffffffffffffffff16021790555060408201518160020160006101000a81548173ffffffffffffffffffffffffffffffffffffffff021916908373ffffffffffffffffffffffffffffffffffffffff1602179055506060820151816003015560808201518160040160006101000a81548160ff0219169083151502179055509050506111b6303385611fe7565b600760009054906101000a900473ffffffffffffffffffffffffffffffffffffffff1673ffffffffffffffffffffffffffffffffffffffff166108fc600b549081150290604051600060405180830381858888f19350505050158015611220573d6000803e3d6000fd5b508073ffffffffffffffffffffffffffffffffffffffff166108fc839081150290604051600060405180830381858888f19350505050158015611267573d6000803e3d6000fd5b50505050565b3373ffffffffffffffffffffffffffffffffffffffff16600c600084815260200190815260200160002060010160009054906101000a900473ffffffffffffffffffffffffffffffffffffffff1673ffffffffffffffffffffffffffffffffffffffff1614611311576040517f08c379a0000000000000000000000000000000000000000000000000000000008152600401611308906133bb565b60405180910390fd5b600b543414611355576040517f08c379a000000000000000000000000000000000000000000000000000000000815260040161134c9061344d565b60405180910390fd5b6000600c600084815260200190815260200160002060040160006101000a81548160ff02191690831515021790555080600c60008481526020019081526020016000206003018190555033600c600084815260200190815260200160002060020160006101000a81548173ffffffffffffffffffffffffffffffffffffffff021916908373ffffffffffffffffffffffffffffffffffffffff16021790555030600c600084815260200190815260200160002060010160006101000a81548173ffffffffffffffffffffffffffffffffffffffff021916908373ffffffffffffffffffffffffffffffffffffffff1602179055506009600081548092919061145c9061346d565b919050555061146c333084611fe7565b5050565b6000600560008473ffffffffffffffffffffffffffffffffffffffff1673ffffffffffffffffffffffffffffffffffffffff16815260200190815260200160002060008373ffffffffffffffffffffffffffffffffffffffff1673ffffffffffffffffffffffffffffffffffffffff16815260200190815260200160002060009054906101000a900460ff16905092915050565b6000600b54905090565b60007f80ac58cd000000000000000000000000000000000000000000000000000000007bffffffffffffffffffffffffffffffffffffffffffffffffffffffff1916827bffffffffffffffffffffffffffffffffffffffffffffffffffffffff191614806115d957507f5b5e139f000000000000000000000000000000000000000000000000000000007bffffffffffffffffffffffffffffffffffffffffffffffffffffffff1916827bffffffffffffffffffffffffffffffffffffffffffffffffffffffff1916145b806115e957506115e882612154565b5b9050919050565b6000806115fc836121be565b9050600073ffffffffffffffffffffffffffffffffffffffff168173ffffffffffffffffffffffffffffffffffffffff160361166f57826040517f7e2732890000000000000000000000000000000000000000000000000000000081526004016116669190612c64565b60405180910390fd5b80915050919050565b60006004600083815260200190815260200160002060009054906101000a900473ffffffffffffffffffffffffffffffffffffffff169050919050565b600033905090565b6116ca83838360016121fb565b505050565b6000806116db846121be565b9050600073ffffffffffffffffffffffffffffffffffffffff168373ffffffffffffffffffffffffffffffffffffffff161461171d5761171c8184866123c0565b5b600073ffffffffffffffffffffffffffffffffffffffff168173ffffffffffffffffffffffffffffffffffffffff16146117ae5761175f6000856000806121fb565b6001600360008373ffffffffffffffffffffffffffffffffffffffff1673ffffffffffffffffffffffffffffffffffffffff168152602001908152602001600020600082825403925050819055505b600073ffffffffffffffffffffffffffffffffffffffff168573ffffffffffffffffffffffffffffffffffffffff1614611831576001600360008773ffffffffffffffffffffffffffffffffffffffff1673ffffffffffffffffffffffffffffffffffffffff168152602001908152602001600020600082825401925050819055505b846002600086815260200190815260200160002060006101000a81548173ffffffffffffffffffffffffffffffffffffffff021916908373ffffffffffffffffffffffffffffffffffffffff160217905550838573ffffffffffffffffffffffffffffffffffffffff168273ffffffffffffffffffffffffffffffffffffffff167fddf252ad1be2c89b69c2b068fc378daa952ba7f163c4a11628f55a4df523b3ef60405160405180910390a4809150509392505050565b600073ffffffffffffffffffffffffffffffffffffffff168273ffffffffffffffffffffffffffffffffffffffff160361195b5760006040517f64a0ae9200000000000000000000000000000000000000000000000000000000815260040161195291906129e8565b60405180910390fd5b6000611969838360006116cf565b9050600073ffffffffffffffffffffffffffffffffffffffff168173ffffffffffffffffffffffffffffffffffffffff16146119dd5760006040517f73c6ac6e0000000000000000000000000000000000000000000000000000000081526004016119d491906129e8565b60405180910390fd5b505050565b80600660008481526020019081526020016000209081611a029190613642565b507ff8e1a15aba9398e019f0b49df1a4fde98ee17ae345cb5f6b5e2c27f5033e8ce782604051611a329190612c64565b60405180910390a15050565b60008111611a81576040517f08c379a0000000000000000000000000000000000000000000000000000000008152600401611a7890613760565b60405180910390fd5b600b543414611ac5576040517f08c379a0000000000000000000000000000000000000000000000000000000008152600401611abc906137f2565b60405180910390fd5b6040518060a001604052808381526020013073ffffffffffffffffffffffffffffffffffffffff1681526020013373ffffffffffffffffffffffffffffffffffffffff16815260200182815260200160001515815250600c60008481526020019081526020016000206000820151816000015560208201518160010160006101000a81548173ffffffffffffffffffffffffffffffffffffffff021916908373ffffffffffffffffffffffffffffffffffffffff16021790555060408201518160020160006101000a81548173ffffffffffffffffffffffffffffffffffffffff021916908373ffffffffffffffffffffffffffffffffffffffff1602179055506060820151816003015560808201518160040160006101000a81548160ff021916908315150217905550905050611bfe333084611fe7565b817fb640004f1d14576d0c209e240cad0410e0d8c0c33a09375861fbadae2588a98d3330846000604051611c359493929190613812565b60405180910390a25050565b600073ffffffffffffffffffffffffffffffffffffffff168273ffffffffffffffffffffffffffffffffffffffff1603611cb257816040517f5b08ba18000000000000000000000000000000000000000000000000000000008152600401611ca991906129e8565b60405180910390fd5b80600560008573ffffffffffffffffffffffffffffffffffffffff1673ffffffffffffffffffffffffffffffffffffffff16815260200190815260200160002060008473ffffffffffffffffffffffffffffffffffffffff1673ffffffffffffffffffffffffffffffffffffffff16815260200190815260200160002060006101000a81548160ff0219169083151502179055508173ffffffffffffffffffffffffffffffffffffffff168373ffffffffffffffffffffffffffffffffffffffff167f17307eab39ab6107e8899845ad3d59bd9653f200f220920489ca2b5937696c3183604051611da39190612877565b60405180910390a3505050565b60008373ffffffffffffffffffffffffffffffffffffffff163b1115611f61578273ffffffffffffffffffffffffffffffffffffffff1663150b7a02611df46116b5565b8685856040518563ffffffff1660e01b8152600401611e1694939291906138ac565b6020604051808303816000875af1925050508015611e5257506040513d601f19601f82011682018060405250810190611e4f919061390d565b60015b611ed6573d8060008114611e82576040519150601f19603f3d011682016040523d82523d6000602084013e611e87565b606091505b506000815103611ece57836040517f64a0ae92000000000000000000000000000000000000000000000000000000008152600401611ec591906129e8565b60405180910390fd5b805181602001fd5b63150b7a0260e01b7bffffffffffffffffffffffffffffffffffffffffffffffffffffffff1916817bffffffffffffffffffffffffffffffffffffffffffffffffffffffff191614611f5f57836040517f64a0ae92000000000000000000000000000000000000000000000000000000008152600401611f5691906129e8565b60405180910390fd5b505b50505050565b606060405180602001604052806000815250905090565b6060611f89826115f0565b506000611f94611f67565b90506000815111611fb45760405180602001604052806000815250611fdf565b80611fbe84612484565b604051602001611fcf929190613293565b6040516020818303038152906040525b915050919050565b600073ffffffffffffffffffffffffffffffffffffffff168273ffffffffffffffffffffffffffffffffffffffff16036120595760006040517f64a0ae9200000000000000000000000000000000000000000000000000000000815260040161205091906129e8565b60405180910390fd5b6000612067838360006116cf565b9050600073ffffffffffffffffffffffffffffffffffffffff168173ffffffffffffffffffffffffffffffffffffffff16036120da57816040517f7e2732890000000000000000000000000000000000000000000000000000000081526004016120d19190612c64565b60405180910390fd5b8373ffffffffffffffffffffffffffffffffffffffff168173ffffffffffffffffffffffffffffffffffffffff161461214e578382826040517f64283d7b0000000000000000000000000000000000000000000000000000000081526004016121459392919061315a565b60405180910390fd5b50505050565b60007f01ffc9a7000000000000000000000000000000000000000000000000000000007bffffffffffffffffffffffffffffffffffffffffffffffffffffffff1916827bffffffffffffffffffffffffffffffffffffffffffffffffffffffff1916149050919050565b60006002600083815260200190815260200160002060009054906101000a900473ffffffffffffffffffffffffffffffffffffffff169050919050565b80806122345750600073ffffffffffffffffffffffffffffffffffffffff168273ffffffffffffffffffffffffffffffffffffffff1614155b15612368576000612244846115f0565b9050600073ffffffffffffffffffffffffffffffffffffffff168373ffffffffffffffffffffffffffffffffffffffff16141580156122af57508273ffffffffffffffffffffffffffffffffffffffff168173ffffffffffffffffffffffffffffffffffffffff1614155b80156122c257506122c08184611470565b155b1561230457826040517fa9fbf51f0000000000000000000000000000000000000000000000000000000081526004016122fb91906129e8565b60405180910390fd5b811561236657838573ffffffffffffffffffffffffffffffffffffffff168273ffffffffffffffffffffffffffffffffffffffff167f8c5be1e5ebec7d5bd14f71427d1e84f3dd0314c0f7b2291e5b200ac8c7c3b92560405160405180910390a45b505b836004600085815260200190815260200160002060006101000a81548173ffffffffffffffffffffffffffffffffffffffff021916908373ffffffffffffffffffffffffffffffffffffffff16021790555050505050565b6123cb838383612552565b61247f57600073ffffffffffffffffffffffffffffffffffffffff168373ffffffffffffffffffffffffffffffffffffffff160361244057806040517f7e2732890000000000000000000000000000000000000000000000000000000081526004016124379190612c64565b60405180910390fd5b81816040517f177e802f00000000000000000000000000000000000000000000000000000000815260040161247692919061393a565b60405180910390fd5b505050565b60606000600161249384612613565b01905060008167ffffffffffffffff8111156124b2576124b1612c89565b5b6040519080825280601f01601f1916602001820160405280156124e45781602001600182028036833780820191505090505b509050600082602001820190505b600115612547578080600190039150507f3031323334353637383961626364656600000000000000000000000000000000600a86061a8153600a858161253b5761253a613963565b5b049450600085036124f2575b819350505050919050565b60008073ffffffffffffffffffffffffffffffffffffffff168373ffffffffffffffffffffffffffffffffffffffff161415801561260a57508273ffffffffffffffffffffffffffffffffffffffff168473ffffffffffffffffffffffffffffffffffffffff1614806125cb57506125ca8484611470565b5b8061260957508273ffffffffffffffffffffffffffffffffffffffff166125f183611678565b73ffffffffffffffffffffffffffffffffffffffff16145b5b90509392505050565b600080600090507a184f03e93ff9f4daa797ed6e38ed64bf6a1f0100000000000000008310612671577a184f03e93ff9f4daa797ed6e38ed64bf6a1f010000000000000000838161266757612666613963565b5b0492506040810190505b6d04ee2d6d415b85acef810000000083106126ae576d04ee2d6d415b85acef810000000083816126a4576126a3613963565b5b0492506020810190505b662386f26fc1000083106126dd57662386f26fc1000083816126d3576126d2613963565b5b0492506010810190505b6305f5e1008310612706576305f5e10083816126fc576126fb613963565b5b0492506008810190505b612710831061272b57612710838161272157612720613963565b5b0492506004810190505b6064831061274e576064838161274457612743613963565b5b0492506002810190505b600a831061275d576001810190505b80915050919050565b6040518060a0016040528060008152602001600073ffffffffffffffffffffffffffffffffffffffff168152602001600073ffffffffffffffffffffffffffffffffffffffff168152602001600081526020016000151581525090565b6000604051905090565b600080fd5b600080fd5b60007fffffffff0000000000000000000000000000000000000000000000000000000082169050919050565b61280c816127d7565b811461281757600080fd5b50565b60008135905061282981612803565b92915050565b600060208284031215612845576128446127cd565b5b60006128538482850161281a565b91505092915050565b60008115159050919050565b6128718161285c565b82525050565b600060208201905061288c6000830184612868565b92915050565b600081519050919050565b600082825260208201905092915050565b60005b838110156128cc5780820151818401526020810190506128b1565b60008484015250505050565b6000601f19601f8301169050919050565b60006128f482612892565b6128fe818561289d565b935061290e8185602086016128ae565b612917816128d8565b840191505092915050565b6000602082019050818103600083015261293c81846128e9565b905092915050565b6000819050919050565b61295781612944565b811461296257600080fd5b50565b6000813590506129748161294e565b92915050565b6000602082840312156129905761298f6127cd565b5b600061299e84828501612965565b91505092915050565b600073ffffffffffffffffffffffffffffffffffffffff82169050919050565b60006129d2826129a7565b9050919050565b6129e2816129c7565b82525050565b60006020820190506129fd60008301846129d9565b92915050565b612a0c816129c7565b8114612a1757600080fd5b50565b600081359050612a2981612a03565b92915050565b60008060408385031215612a4657612a456127cd565b5b6000612a5485828601612a1a565b9250506020612a6585828601612965565b9150509250929050565b600081519050919050565b600082825260208201905092915050565b6000819050602082019050919050565b612aa481612944565b82525050565b612ab3816129c7565b82525050565b612ac28161285c565b82525050565b60a082016000820151612ade6000850182612a9b565b506020820151612af16020850182612aaa565b506040820151612b046040850182612aaa565b506060820151612b176060850182612a9b565b506080820151612b2a6080850182612ab9565b50505050565b6000612b3c8383612ac8565b60a08301905092915050565b6000602082019050919050565b6000612b6082612a6f565b612b6a8185612a7a565b9350612b7583612a8b565b8060005b83811015612ba6578151612b8d8882612b30565b9750612b9883612b48565b925050600181019050612b79565b5085935050505092915050565b60006020820190508181036000830152612bcd8184612b55565b905092915050565b600080600060608486031215612bee57612bed6127cd565b5b6000612bfc86828701612a1a565b9350506020612c0d86828701612a1a565b9250506040612c1e86828701612965565b9150509250925092565b600060208284031215612c3e57612c3d6127cd565b5b6000612c4c84828501612a1a565b91505092915050565b612c5e81612944565b82525050565b6000602082019050612c796000830184612c55565b92915050565b600080fd5b600080fd5b7f4e487b7100000000000000000000000000000000000000000000000000000000600052604160045260246000fd5b612cc1826128d8565b810181811067ffffffffffffffff82111715612ce057612cdf612c89565b5b80604052505050565b6000612cf36127c3565b9050612cff8282612cb8565b919050565b600067ffffffffffffffff821115612d1f57612d1e612c89565b5b612d28826128d8565b9050602081019050919050565b82818337600083830152505050565b6000612d57612d5284612d04565b612ce9565b905082815260208101848484011115612d7357612d72612c84565b5b612d7e848285612d35565b509392505050565b600082601f830112612d9b57612d9a612c7f565b5b8135612dab848260208601612d44565b91505092915050565b60008060408385031215612dcb57612dca6127cd565b5b600083013567ffffffffffffffff811115612de957612de86127d2565b5b612df585828601612d86565b9250506020612e0685828601612965565b9150509250929050565b612e198161285c565b8114612e2457600080fd5b50565b600081359050612e3681612e10565b92915050565b60008060408385031215612e5357612e526127cd565b5b6000612e6185828601612a1a565b9250506020612e7285828601612e27565b9150509250929050565b600067ffffffffffffffff821115612e9757612e96612c89565b5b612ea0826128d8565b9050602081019050919050565b6000612ec0612ebb84612e7c565b612ce9565b905082815260208101848484011115612edc57612edb612c84565b5b612ee7848285612d35565b509392505050565b600082601f830112612f0457612f03612c7f565b5b8135612f14848260208601612ead565b91505092915050565b60008060008060808587031215612f3757612f366127cd565b5b6000612f4587828801612a1a565b9450506020612f5687828801612a1a565b9350506040612f6787828801612965565b925050606085013567ffffffffffffffff811115612f8857612f876127d2565b5b612f9487828801612eef565b91505092959194509250565b60008060408385031215612fb757612fb66127cd565b5b6000612fc585828601612965565b9250506020612fd685828601612965565b9150509250929050565b60008060408385031215612ff757612ff66127cd565b5b600061300585828601612a1a565b925050602061301685828601612a1a565b9150509250929050565b7f4e487b7100000000000000000000000000000000000000000000000000000000600052602260045260246000fd5b6000600282049050600182168061306757607f821691505b60208210810361307a57613079613020565b5b50919050565b7f4e487b7100000000000000000000000000000000000000000000000000000000600052601160045260246000fd5b60006130ba82612944565b91506130c583612944565b92508282019050808211156130dd576130dc613080565b5b92915050565b60006130ee82612944565b91507fffffffffffffffffffffffffffffffffffffffffffffffffffffffffffffffff82036131205761311f613080565b5b600182019050919050565b7f4e487b7100000000000000000000000000000000000000000000000000000000600052603260045260246000fd5b600060608201905061316f60008301866129d9565b61317c6020830185612c55565b61318960408301846129d9565b949350505050565b600061319c82612944565b91506131a783612944565b92508282039050818111156131bf576131be613080565b5b92915050565b7f4f6e6c79206d61726b6574706c616365206f776e65722063616e20757064617460008201527f65206c697374696e672070726963652e00000000000000000000000000000000602082015250565b600061322160308361289d565b915061322c826131c5565b604082019050919050565b6000602082019050818103600083015261325081613214565b9050919050565b600081905092915050565b600061326d82612892565b6132778185613257565b93506132878185602086016128ae565b80840191505092915050565b600061329f8285613262565b91506132ab8284613262565b91508190509392505050565b7f506c65617365207375626d6974207468652061736b696e67207072696365206960008201527f6e206f7264657220746f20636f6d706c65746520746865207075726368617365602082015250565b600061331360408361289d565b915061331e826132b7565b604082019050919050565b6000602082019050818103600083015261334281613306565b9050919050565b7f4f6e6c79206974656d206f776e65722063616e20706572666f726d207468697360008201527f206f7065726174696f6e00000000000000000000000000000000000000000000602082015250565b60006133a5602a8361289d565b91506133b082613349565b604082019050919050565b600060208201905081810360008301526133d481613398565b9050919050565b7f5072696365206d75737420626520657175616c20746f206c697374696e67207060008201527f7269636500000000000000000000000000000000000000000000000000000000602082015250565b600061343760248361289d565b9150613442826133db565b604082019050919050565b600060208201905081810360008301526134668161342a565b9050919050565b600061347882612944565b91506000820361348b5761348a613080565b5b600182039050919050565b60008190508160005260206000209050919050565b60006020601f8301049050919050565b600082821b905092915050565b6000600883026134f87fffffffffffffffffffffffffffffffffffffffffffffffffffffffffffffffff826134bb565b61350286836134bb565b95508019841693508086168417925050509392505050565b6000819050919050565b600061353f61353a61353584612944565b61351a565b612944565b9050919050565b6000819050919050565b61355983613524565b61356d61356582613546565b8484546134c8565b825550505050565b600090565b613582613575565b61358d818484613550565b505050565b5b818110156135b1576135a660008261357a565b600181019050613593565b5050565b601f8211156135f6576135c781613496565b6135d0846134ab565b810160208510156135df578190505b6135f36135eb856134ab565b830182613592565b50505b505050565b600082821c905092915050565b6000613619600019846008026135fb565b1980831691505092915050565b60006136328383613608565b9150826002028217905092915050565b61364b82612892565b67ffffffffffffffff81111561366457613663612c89565b5b61366e825461304f565b6136798282856135b5565b600060209050601f8311600181146136ac576000841561369a578287015190505b6136a48582613626565b86555061370c565b601f1984166136ba86613496565b60005b828110156136e2578489015182556001820191506020850194506020810190506136bd565b868310156136ff57848901516136fb601f891682613608565b8355505b6001600288020188555050505b505050505050565b7f7072696365206d7573742062652061746c656173742031207765690000000000600082015250565b600061374a601b8361289d565b915061375582613714565b602082019050919050565b600060208201905081810360008301526137798161373d565b9050919050565b7f616d6f756e742073686f756c6420626520657175616c20746f206c697374696e60008201527f6720707269636521000000000000000000000000000000000000000000000000602082015250565b60006137dc60288361289d565b91506137e782613780565b604082019050919050565b6000602082019050818103600083015261380b816137cf565b9050919050565b600060808201905061382760008301876129d9565b61383460208301866129d9565b6138416040830185612c55565b61384e6060830184612868565b95945050505050565b600081519050919050565b600082825260208201905092915050565b600061387e82613857565b6138888185613862565b93506138988185602086016128ae565b6138a1816128d8565b840191505092915050565b60006080820190506138c160008301876129d9565b6138ce60208301866129d9565b6138db6040830185612c55565b81810360608301526138ed8184613873565b905095945050505050565b60008151905061390781612803565b92915050565b600060208284031215613923576139226127cd565b5b6000613931848285016138f8565b91505092915050565b600060408201905061394f60008301856129d9565b61395c6020830184612c55565b9392505050565b7f4e487b7100000000000000000000000000000000000000000000000000000000600052601260045260246000fdfea26469706673582212203ac19805543b2eecd26b1aa8379293c17bc00e31ce51052d0bd7912d7c8a084a64736f6c63430008140033",
  "linkReferences": {},
  "deployedLinkReferences": {}
}